:020000040000FA
:100000000080001051040000590400005B0400004F
:100010005D0400005F0400006104000000000000B7
:100020000000000000000000000000006304000069
:10003000650400000000000067040000690400007F
:100040006B0400006B0400006B0400006B040000F4
:100050006B0400006B0400006B0400006B040000E4
:100060006B0400006B0400006B0400006B040000D4
:100070006B0400006B0400006B0400006B040000C4
:100080006B0400006B0400006B0400006B040000B4
:100090006B0400006B0400006B0400006B040000A4
:1000A0006B0400006B0400006B0400006B04000094
:1000B0006B0400006B0400006B0400006B04000084
:1000C0006B040000000000000000000000000000C1
:1000D0000000000000000000000000000000000020
:1000E0000000000000000000000000000000000010
:1000F0000000000000000000000000000000000000
:1001000000000000000000000000000000000000EF
:1002F000000000000000000000000000FFFFFFFF02
:1003000000F002F800F096F80AA090E8000C824491
:100310008344AAF10107DA4501D100F08BF8AFF26E
:10032000090EBAE80F0013F0010F18BFFB1A43F0D3
:1003300001031847E090000000910000103A24BF2C
:1003400078C878C1FAD8520724BF30C830C144BF3A
:1003500004680C607047000000230024002500267C
:10036000103A28BF78C1FBD8520728BF30C148BF18
:100370000B6070476E2900F04D85702901F0B9803F
:10038000662908F07583652908F07283672908F0EB
:100390006F83612908F06E8303681B0A28BF41F050
:1003A0008001692900F0FA84642900F0F784752936
:1003B00000F0F4846F2901F04680782901F08580EF
:1003C000E92900F0E187E42900F0DE87F52900F053
:1003D000DB87EF2901F04380F82901F0848003686E
:1003E000DB0928BF41F08001632901F0D986732918
:1003F00001F0DE86E32901F0E986F32901F0EE86BB
:10040000002070471FB59DE8030000F023FC01F0B9
:1004100043FC04000020002107F0F0F8401C60605D
:100420000020002107F0D4F8E06001F091FB00F01B
:10043000D1FB1FBD04F096FE114603B404F0A6FEE6
:1004400003BCFFF7DFFF02F02BFC05F04BFB0000C5
:100450000648804706480047FEE7FEE7FEE7FEE75E
:10046000FEE7FEE7FEE7FEE7FEE7FEE7BD2C000045
:100470000103000000487047C807001070B5064629
:1004800000F0CCFB056806F10B0020F00704B44235
:100490009CBF002070BD2B466A68BAB11068A042AC
:1004A00010D304F1080188423CBF5068586007D35C
:1004B0005168101941601168091B0160586014608F
:1004C000101D70BD13465268002AE7D12146284608
:1004D00000F0ACFB0028DED170BD70B50446051FEE
:1004E00000F09CFB0068002C14BF446870BD002C19
:1004F00018BFAC423CBF20466468F8D301680A18B4
:10050000AA4218BF456003D12A680546114401601C
:1005100028684119A1421CBF6C6070BD61686960A8
:1005200021680844286070BD53EA020C00F069801D
:100530002DE9F04B4FF00006002B1FBFB3FA83F5F7
:1005400003FA05F424FA05F65E4012BF1643B2FA28
:1005500082F502FA05F4C5F120051EBF22FA05FC5A
:1005600044EA0C04203556EA044C4FEA144418BF00
:10057000641C4FF000084FF00009904271EB030C2F
:1005800039D3002919BFB1FA81F701FA07F6B0FA99
:1005900080F700FA07F6C7F120071EBF20FA07FC14
:1005A00046EA0C062037B6FBF4FCA7EB0507103F24
:1005B00007F01F0BCBF120060CFA0BFB2CFA06F60A
:1005C00044BFB3460026202FA4BF5E464FF0000B69
:1005D0005BEA060C08BF4FF0010B19EB0B09ABFBF4
:1005E000027C48EB0608C01B06FB02CC0BFB03CCCD
:1005F00071EB0C01C1E70B46024641464846BDE897
:10060000F08B13B54FF000004FF00001AFF3008006
:10061000BDE81C407047B2F120030AD5C2F12003A7
:1006200001FA02F120FA03F300FA02F041EA0301B1
:10063000704700FA03F14FF0000070477CB51D468B
:1006400016460C00009001D02044401E074B7B440E
:100650002A4669460190304600F005FE05461CB169
:100660000020694600F012FE28467CBD450C0000C3
:100670000B460146184600F017BE00000FB40449AF
:1006800010B503AA029800F00FFE10BC5DF814FB31
:10069000200800102DE9F05F894604464FF0000A5B
:1006A000DFF874B1FB44C0F820A02046E168884719
:1006B000002874D0252806D0D4E901219047206A6B
:1006C000401C2062F1E700265F462046E16888472B
:1006D0002028054607DB312D05D2781910F8200CAB
:1006E00008B10643F1E7B00701D526F00406C4F8C7
:1006F0001CA00027C4F818A02A2D09D0284604F011
:1007000035FD38B304EB8708303DC8F8185019E0C0
:1007100059F8041B204604EB87029161E168884781
:10072000012F054618D1E069002820DA26F02006BE
:100730001DE0D8F8180000EB800005EB40003038D1
:10074000C8F818002046E1688847054604F00EFD09
:100750000028EED1012F0AD02E2D08D12046E168C5
:1007600088477F1C0546022F46F02006C4DBA0699F
:10077000002803DA404246F00106A061F00701D0EC
:1007800026F010066C2D0BD0682D09D04C2D39D0D9
:100790006A2D35D0742D35D07A2D33D016E038E05F
:1007A000E1682F4620468847B842054609D16C2F9C
:1007B00026D04FF48060E16806432046884705460E
:1007C00004E06C2F1AD04FF4807006430DB3A5F1EE
:1007D0004100192802D8203546F400664A462946C9
:1007E000204626604E46FFF7C5FD80B101280BD09C
:1007F000F61D26F0070000F1080956E74020E4E75F
:100800008020D8E70020D6E706F104094DE7284606
:1008100052E7206ABDE8F09FE886000070B5044604
:10082000C068810713D0800601D5A56A04E0A169DC
:10083000606808442169451A204601F045F9002204
:1008400006462946204601F06BF8304670BD002070
:1008500070BD70B510B1BDE87040DFE70025074CF2
:100860006E1E07E02046FFF7D9FF00B13546206D28
:1008700020F00104002CF5D1284670BDCC070010F3
:100880002DE9F0410C4607461646104600F078F870
:100890002078611C61280AD0722802D077283CD1C8
:1008A00002E00125002405E00225042402E00824DA
:1008B00048F2020511F8010B2B2806D0622809D056
:1008C00011F8010C74280AD00BE045F0030544F040
:1008D0000204EFE745F0040544F00104EAE744F0C0
:1008E00010043846214604F0CBFC411C15D00021F1
:1008F000316171604FF40071F560F1617061200742
:1009000004D530460222002101F00AF8306D40F093
:10091000010030653046BDE8F0810020FBE72DE99D
:10092000F0410D460646104C206DC10704D0410829
:1009300004D020F00104F7E722460EE05420FFF730
:100940009DFD07000ED0206D47F0010108435421A2
:100950002065384600F0D6F83A4629463046BDE8CC
:10096000F0418DE70020D6E7CC07001011B14FF41D
:10097000807201E04FF480624FF4007301F04CB8D4
:100980002DE9F04704464FF000094FF0FF37C568E6
:10099000D4E90486A80707D0204601F095F8304630
:1009A00004F002FC002802DA3846BDE8F08728058A
:1009B00002D54046FFF791FD4C21204600F0A2F8F9
:1009C000206D20F0010020654846EEE710B5431C7D
:1009D00002E010F8011B71B18107FAD14FF001322A
:1009E00002C88C1A8C4314EAC211F9D0C01A0A0644
:1009F00003D0C01E10BDC01A10BD0A0401D0801E55
:100A000010BD0902FCD0401E10BD40EA010370B5C4
:100A10009B072ED14FF00136042A2AD308C810C9EB
:100A20009D1B9D43121F15EAC61517D0D8B2E1B21F
:100A3000401A50EA056110D198B2A1B2401A50EAAA
:100A400005410AD123F07F4024F07F41401A50EA4B
:100A5000052102D1180EA0EB146070BDA342DBD0BB
:100A600018BA21BA884201D9012070BD4FF0FF3079
:100A700070BD0AB9002070BD10F8013B11F8014BA0
:100A800063B1A3420AD1521E08D010F8013B11F8FD
:100A9000014B1BB1A34201D1521EEDD1181B70BDF9
:100AA00010B5203AC0F00B80B1E81850203AA0E809
:100AB0001850B1E81850A0E81850BFF4F5AF5FEA3D
:100AC000027C24BFB1E81850A0E8185044BF18C9F0
:100AD00018C0BDE810405FEA827C24BF51F8043B97
:100AE00040F8043B08BF7047D20728BF31F8023BEB
:100AF00048BF11F8012B28BF20F8023B48BF00F87F
:100B0000012B70474FF0000200B5134694469646FD
:100B1000203922BFA0E80C50A0E80C50B1F1200110
:100B2000BFF4F7AF090728BFA0E80C5048BF0CC0BE
:100B30005DF804EB890028BF40F8042B08BF70471C
:100B400048BF20F8022B11F0804F18BF00F8012B8E
:100B5000704700004FF0013C50F8042B51F8043B63
:100B60009A4221D1A2EB0C03934313EACC1317D181
:100B700050F8042B51F8043B9A4215D1A2EB0C0318
:100B8000934313EACC130BD150F8042B51F8043BD8
:100B90009A4209D1A2EB0C03934313EACC13DBD0A6
:100BA0004FF00000704700BFD01A01BAB1FA81F1CE
:100BB00001F0180122FA01F0CB40C1F12001DBB2B3
:100BC000C0B2C01A2CFA01F3D11A914311EAC31131
:100BD000E6D1704770B5064C7C44064D7D4403E079
:100BE000206820448047241DAC42F9D170BD00002C
:100BF00084890000888900002DE9F04117460E46DF
:100C0000054633B107FB0354E41B2046B047A54219
:100C1000FAD1A5F10800BDE8F08100000048704756
:100C2000C8080010704770477047704738B50446D1
:100C30000A460020694601F0DCFB002808BF38BDE9
:100C400002460099204601F02BF8012038BD012012
:100C500001F0A4BBF8B501F0C1FB054600200C462D
:100C6000102000BF0646A819A0420DD93246694699
:100C7000002001F0BEFB070008BF01F08FFB0098C9
:100C8000A04218BF0546C419FFF7C8FF0560074614
:100C9000F01D20F007004619284600F00AF8B4427B
:100CA00008BFF8BDA21B31463868BDE8F84000F027
:100CB000F7BF00210160C0E90110704710207047A4
:100CC00010B5FFF7D7FB006810BD10B50446FFF75D
:100CD000D1FB046010BD70B5044685690068C1068B
:100CE00001D5302600E02026C00707D070BDD4E92A
:100CF000012130469047206A401C20626D1EF6D5C7
:100D000070BD70B5044685690078C00707D170BD15
:100D1000D4E9012120209047206A401C20626D1EEA
:100D2000F6D570BD09684A0501D540B27047C905BE
:100D3000FCD500B2704709684A0501D5C0B27047BA
:100D4000C905FCD580B2704770B50C460546012A2E
:100D500005D02878800600D5EA69002302E0012347
:100D600005E05B1C934202D2E05C0028F9D1A8693F
:100D7000E618C01AA861286A184428622846FFF7B6
:100D8000AAFF04E0D5E9012114F8010B9047B44211
:100D9000F8D32846FFF7B5FF70BD00002DE9F041FC
:100DA0000646002410687529314616A510D0FFF7B5
:100DB000B9FF002802DA404213A507E031688A072C
:100DC00001D512A502E0490704D511A5012401E0CF
:100DD000FFF7B1FF00210A2206F1240709E0B0FB6A
:100DE000F2FCB0FBF2F302FB1C00303078541846E2
:100DF000491C0028F3D123462A463046BDE8F0417D
:100E000000F0ADBF000000002D0000002B0000002E
:100E10002000000011680268006A530501D50870BF
:100E20000AE0D30501D5088006E0130603D5C217F2
:100E3000C1E9000200E008600120704770472DE919
:100E4000FF4F0C461E464FF0FF378BB0D2E9000132
:100E5000DDF860800A908A46C1F30A5505B93D461F
:100E6000002108464FF00000BAF1000F00F44000E6
:100E700005DA00EB80004FF4400101EA50004FEA30
:100E80009059B9F1010F00DDB9460A9850EA4A00BD
:100E90000ED044F61050A5F2FF3545432F14B8F19B
:100EA000000F1ED07542291E1EDDC9F100021CE094
:100EB000B8F1010F4FF0000001D0302103E0F24300
:100EC00005E02154401CB042FBDB304600220021EB
:100ED00021540B99C1F80880C1E900200FB0BDE88A
:100EE000F08FBD1B6D1CDEE74A4600DA694206A89A
:100EF00001F078F906AB93E8070003AB83E807003D
:100F000050460A9901F004FB8DE80700A0F5005057
:100F10001F3800900398002D0ADD42F21F014A4657
:100F20000844002303A90390684601F06DFD09E021
:100F3000A0F500504A461F38002303A903906846D5
:100F400001F077FD8DE807000004000C03D04FF09E
:100F5000FF30410800E01046B8F1000F03D0002236
:100F6000009215461EE0751E05D400F0B3FE303227
:100F700062556D1EF9D5B3460122084302D0002206
:100F80007F1C04E02078302801D100227F1E002A37
:100F9000099784D01DE0112D07DA00F09BFE303256
:100FA00062556D1C50EA0102F5D1084302D0009849
:100FB000C8B10EE00021681E05E0235C625C63544A
:100FC0002254401E491C8142F7DBAB46A81B401E41
:100FD0000990002004F80B000B98099AC0F80880CB
:100FE000C0E9002B7AE711264FF0000857E72DE9FA
:100FF000F04F88460446D21D22F0070191B0D1E996
:101000000001CDE90A0103F001FF02460B98C00F71
:1010100001D02D2007E02068810701D52B2002E0B8
:10102000202101EAC000032A099001D0072A05DB2C
:1010300003464146204601F069F80BE1207880061E
:1010400001D5E06900E00620B8F1650F814606D0C1
:10105000B8F1660F18D0B8F1670F70D131E00020F9
:10106000B9F1110F009001DB112301E009F1010337
:101070000AAA01A90CA8FFF7E2FEDDE90C70002620
:1010800009F10105834647E001204B4600904FF0EF
:1010900000470AAA01A90CA8FFF7D1FEDDE90DB0AF
:1010A0000C995D46002610B909F101000D18B9EB45
:1010B000050003D4C0F1FF3609F10105A5EB0900D5
:1010C0002BE0B9F1010F01DA4FF001090020B9F16D
:1010D000110F0090484601DD112300E003460AAAE3
:1010E00001A90CA8FFF7ABFEDDE90C704D46002608
:1010F0008346207800070AD4AB4500DA5D4601A894
:10110000012D04DD411911F8011C302907D04F458C
:1011100002DA17F1040F04DA012082460FE06D1E97
:10112000EEE7002F02DCED1B3E4403E0781CA842F2
:1011300000DD7D1CB81B00F1010A4FF0004720784C
:10114000000703D4AA4501DB4FF0FF3A0021B7F1B5
:10115000004F0DF143088DF8431024D002202B23BB
:10116000002F01DA7F422D230A21021EA0F1010087
:1011700000DC5FB197FBF1FC97FBF1F201FB1C7CFB
:1011800017460CF1300C08F801CDEEE7A8F101008C
:1011900003702188090501D5452100E06521A0F1F2
:1011A000010800F8011C09980FA9A1EB0807FF1D11
:1011B00000B10120411901EBEA70A1693844081A15
:1011C000401EA0612078C00602D42046FFF783FDB0
:1011D000099828B1D4E901219047206A401C206277
:1011E0002078C00622D52046FFF775FD1EE0002EB0
:1011F00004DBB34502DD01A8805D00E03020D4E9C6
:1012000001219047206A401C2062761CAAF101004F
:101210005FEA000A0AD100F03FFDC0680168405C47
:10122000D4E901219047206A401C2062281EA5F1C4
:101230000105DCDC07E0D4E9012118F8010B904737
:10124000206A401C2062381EA7F10107F3DC20460B
:10125000FFF757FD032011B041E6000001694A1C69
:1012600002610878704700B58FB0CDE901310021E7
:10127000059105497944CDE9031011466846FFF709
:1012800009FA0FB000BD0000E5FFFFFF0A6802F891
:10129000010B0A607047D1E900239A4202D2531C25
:1012A0000B60107070470000074B70B50D467B4413
:1012B000FFF7D9FF0446284600F026F910B14FF099
:1012C000FF3070BD204670BD774800002DE9FF5FFC
:1012D00015468A460446DFF8AC80F8440027D8E972
:1012E00000103E46CDE9001010E03AF816106A46AC
:1012F00002A801F027F8411C07D02178890603D500
:10130000E269391891420DD80744761C207880068E
:1013100002D5E069B84205DDAE42E6DB3AF81600D8
:101320000028E2D1A069C01BA0612046FFF7D3FCD2
:10133000D8E90010CDE90010002017E03AF81810A5
:101340006A4602A800F0FEFFB0F1FF3F81460BD0D5
:1013500000250DF1080B05E0D4E901211BF805007B
:1013600090476D1C4D45F7D308F10100B04280460F
:10137000E4DB206A384420622046FFF7C2FCBDE867
:10138000FF9F0000C67A00002DE9F0418046D21D83
:1013900022F007020025D2E90002F52915A614D093
:1013A000011E72F1000106DA0023D0EB030063EBAB
:1013B000020211A608E0D8F800108B0701D50FA68D
:1013C00002E0490701D50EA601251146002408F1C7
:1013D000240704E000F07EFC30323A55641C50EAE9
:1013E0000102F7D12B46324621464046BDE8F04186
:1013F00000F0B5BC000000002D0000002B00000034
:101400002000000030B4002100F1240408E002F0C4
:101410000705D208303542EA4372DB086554491C9F
:1014200052EA0305F3D10468002310A2250707D56B
:10143000A40600D421B1C46901230DA2641EC461B5
:1014400030BC00F08CBC10B5044621461068FFF794
:1014500072FC02462046BDE810400023D2E7D21DB0
:1014600022F00701D1E90023CCE7000000000000D2
:1014700030000000F0B40D460188090502D5214C6A
:101480007C4402E01F4C7C440E34002100F1240611
:1014900008E002F00F071209E75D42EA03721B0938
:1014A0007754491C52EA0307F3D10278002312074C
:1014B00004D5702D06D009B1022311342246F0BCA8
:1014C00000F04DBC01231034F8E770B504460D461A
:1014D00021461068FFF72FFC024629462046BDE84A
:1014E00070400023C6E7D21D22F00703D3E9002392
:1014F000C0E70368126843F0200303600823C36158
:101500000023B7E728790000007B00F080007047D7
:1015100070B50D4601461446D36850692A4603F05B
:10152000B3FF002807DA411C07D0E16820F0004033
:1015300041F48041E160281A70BD204600F090FA25
:101540004FF0FF3070BDC1680022026021F480516D
:1015500041F0400111F4C06FC16001D0826070475A
:1015600002694168891AC269891A816070472DE948
:10157000F0470446C06840F48000E060010312D5E3
:1015800020F40020E060810606D4E26A61688A42A5
:1015900000D80A46511A216040F40010E06094F827
:1015A0002500BDE8F08720F40010E060800602D539
:1015B000204600F0ACFAE06842F281014FF0FF39BA
:1015C0000140012903D0204600F04AFAB6E0216824
:1015D000002600290ADAC94340F480502160C4E99A
:1015E00002606068411C61600078DAE744F2400103
:1015F00008420CD020F4A04040F040002660E0609B
:1016000021696068401AE169401AA06096E021698A
:1016100091B9C00310D4E069FEF730FF2061B0B18A
:10162000E06840F4006010F4407FE06002D140F4D4
:101630008070E06020696060E068D4F814A0C106A2
:101640001AD5C0030ED5204600F03EFA14E004F18E
:10165000240020610120E061E06820F4407040F443
:101660008060E6E721696068401AA169014450463C
:1016700003F044FF0028A6DBE068C0032AD56168B8
:10168000E06A884200D808462169451AE069471B8C
:101690001BD02046D4F8188000F016FA08EB05019C
:1016A0005046C4F8188003F029FF00288BDBE0685F
:1016B00040F40030E060000202D5A0692844A06137
:1016C000E1692069C91B45180DE0204600F0FCF9CE
:1016D000E769F5E725696168D4E90607491BE56212
:1016E00008446560A061E06820F0100010F4C06F4D
:1016F000E06002D0204600F009FEE06840F480502F
:10170000C4E90260000205D52069E06260606FF004
:10171000010046E7224639462846FFF7F9FE411CFC
:101720000CD02918E16258B1401E2060681C60602E
:10173000E06840F40030E060287832E7484630E75F
:1017400065602046FFF7FFFEF8E72DE9F047054604
:101750000C46C86820F4201040F48000C860800661
:1017600002D5084600F0D3F9E06841F282014FF05B
:10177000FF390140022903D0204600F071F9B5E09D
:1017800000F42041B1F5004F0FD1C00306D56168C8
:10179000E06A884200D80846606006E02069E0629E
:1017A0006060606903F026FDA061A0680022EEB2CF
:1017B00000280DDAE1688B050AD4C043A06041F42B
:1017C00090302260E0606068411C61600670A5E0B6
:1017D000E0689046226040F40050E060206968BBF9
:1017E000606903F02DFD012704F12405A0B1A08953
:1017F00010F4407F08D0E069FEF740FE206118B188
:10180000E06840F4006016E0E7612561E06820F4DC
:10181000407040F480600EE0E069FEF72FFE002883
:101820002061F1D0E06840F4006010F4407FE06097
:1018300002D140F48070E06020696060E068256952
:101840006FF0010AC1051FD56168E06A884200D8BF
:101850000846411B04D02246284600F00BF9F0BB95
:10186000E068010203D5E562C4E9015854E0691C4F
:10187000E1626160E16940F48030491EC4E9021010
:1018800030462E70BDE8F087010202D500F48032A8
:101890000AE06068411C61600670E0680A2E40F44E
:1018A0008030E06006D00022E16A6068814203D99E
:1018B0000B4602E00122F7E70346A7895B1B7F0581
:1018C00003D4E7699F4200DDE2B1814200D80146BE
:1018D000E5620F1AC4E90158002B09DD00E005E0BC
:1018E00022461946284600F0C5F808B14846C9E71F
:1018F00047B1A069E5626560C01BA061E06840F087
:101900001000E060E068000208D56168A069E56247
:10191000491B08446560A0615046B3E73046B1E713
:101920002DE9F041044616460D464769007B8007C5
:101930002ED0384603F084FC50BB3EB3012E02D0BB
:10194000022E25D104E0204600F0BEFC05441DE037
:10195000384603F04FFCE168002841F01001E160D7
:1019600005DA204600F07CF80120BDE8F081C903CB
:101970000BD56268E16A914200D81146A269114410
:101980002269891A814200DD08460544002D01DAEA
:101990000220EAE7E16A6068E268814206D29103C8
:1019A000E06203D522F4003141F01002A66900275D
:1019B000AE4213DCE16A814201D90B4600E00346E6
:1019C00003EB060C2369ACEB030CAC4506DD81424E
:1019D00001D98C4600E084469C4505D1A76027606C
:1019E00042F02000A5620DE0AD1BE669AE1B81420E
:1019F000A66000D90846C01A281A206058196060ED
:101A000022F0200003490840E060002084F848707C
:101A1000ABE70000BFCFD7FF70B5C468A50713D0F0
:101A2000650211D4B2F5807F09D0B2F5007F06D0EF
:101A3000B2F5806F08D1012300F1240106E05D1E9C
:101A40006FF07F46B54201D3012070BD0161C361D3
:101A5000416024F470611143C160002070BD00003A
:101A6000C16821F4001141F08001C1600021816052
:101A7000016070472DE9F047814614460E464FF04D
:101A8000FF383248D5685769054209D03846A16900
:101A900003F034FD002811DB2C48C0430540E5600D
:101AA0002B4632464946384603F050FDA16920F0E6
:101AB0000042B21A11440028A16103D02046FFF76A
:101AC000CFFF4046BDE8F08770B504460569C06A9F
:101AD0006168884200D80846E16821F42011E1607D
:101AE000C90312D5A84208D02246411B2846FFF759
:101AF000C1FF10B14FF0FF3070BD0020E562C4E9B6
:101B00000150E06820F48030E060002070BD10B526
:101B10000446C06820F02000E060A16AA069884205
:101B20000DD02046FFF7D0FFE06820F4405040F091
:101B30001000E060A06AA0612069E062606044F289
:101B40004001E0688843E06010BD00001000020022
:101B500010B542485421FEF7D5FF41485421FEF705
:101B6000D1FF40485421FEF7CDFF3F493B483C4A56
:101B70003F4B08603D490A603A491960531C0365B0
:101B8000481C1065012008653B48344A39A1784457
:101B9000FEF776FE20B9384878440A3800F0F7FBA3
:101BA00037482F4A35A17844FEF76AFE20B93448F9
:101BB00078440A3800F0EBFB32482A4A2FA17844D7
:101BC000FEF75EFE20B92F4878440A3800F0DFFBAC
:101BD00040232248DC0000212246FFF71DFF20B1F0
:101BE00025487844543800F0D2FB1D482246402353
:101BF0000021FFF711FF20B121487844543800F04C
:101C0000C6FB1848224610230021FFF705FF0028D5
:101C100006D01C487844BDE81040563800F0B7BBE9
:101C200010BD104870B5006D20F001040B48FEF7A0
:101C3000A7FE0B48FEF7A4FE0A48FEF7A1FE09E046
:101C4000206D20F001052046FEF79AFE2046FEF7A3
:101C500044FC2C46002CF3D170BD0000CC070010D2
:101C6000200800107408001040010010440100100A
:101C70004801001072000000C66F000077000000ED
:101C8000B56F0000A56F000010B500F08FFBBDE838
:101C9000104000F077BB000000487047CC080010EF
:101CA000034640688C46002818BF88423CBF034664
:101CB0004068F8D318681844884207D00CF1030034
:101CC00020F00700001D411A521A0146081D0A6043
:101CD000FEF703BC30B5B0F10A024FEA900E71F185
:101CE00000034EEA817EB0EB0E0061EB91014FEAFA
:101CF000101E4EEA017E10EB0E0041EB11114FEA6F
:101D0000102E4EEA016E10EB0E0041EB11214FEA4E
:101D1000104E4EEA014E10EB0E0041EB11414018FF
:101D200041F100014FEAD00040EA41704FEAD10191
:101D300010EB80054FEA810444EA907444EB0104FF
:101D40006D1944EB0404521BA3414FF0000348BF3C
:101D50000A3200D530BD401C41F1000130BD2DE9F3
:101D6000F0470D4699469246044600F12408016862
:101D7000880604D5E06921F01001216000E001200F
:101D8000A84201DD471B00E00027A1697A1902EB98
:101D90000900081AA0612078C00602D42046FEF788
:101DA0009AFF002608E0D4E901211AF806009047BE
:101DB000206A401C761C20624E45F4DB2078C00669
:101DC0000AD52046FEF787FF06E0D4E9012130203E
:101DD0009047206A401C2062381EA7F10107F4DCFE
:101DE00007E0D4E9012118F805009047206A401C5B
:101DF0002062281EA5F10105F3DC2046FEF781FFD5
:101E00002078000602D50220BDE8F0870120FBE71C
:101E10002DE9F04F04460D46D21D22F0070089B08F
:101E2000D0E900974846394602F0F0FF0246F80F25
:101E300001D02D2307E02068810701D52B2302E084
:101E4000202101EAC0038DF820300BB1012000E011
:101E50000020032A824601D0072A04DB29462046B7
:101E600000F054F93FE12078800601D40D2500E010
:101E7000E569C7F30A560D2D49DA00214FEA175BD1
:101E800008464FF00000002F00F4400007DA00EB96
:101E900080004FF4400100EBD07001EA6000811532
:101EA000012901DD4FF0FF3100224FEA850CBCF122
:101EB000180F06D31346ACF118004FF08052C24001
:101EC00003E04FF4801323FA0CF30CF10C0CBCF17B
:101ED000200F04D3ACF1200C09FA0CF001E007FA52
:101EE0000CF000294FF0004801DD18B90FE00ED1C9
:101EF00040450CD319EB02095F4121B9404502D19D
:101F00009F4329EA0209BBEB175F00D0761C2088AB
:101F1000000502D57B48784402E07A4878441938B5
:101F200008AA302302F80A30037C0AF10101002ECE
:101F30000AF1020A53546A4602DC4FF0300101E014
:101F40004FF031014FF001088DF8001002D0A6F2D9
:101F5000FF3603E059EA470100D06B4E002D02DC4A
:101F60002178090704D54FF002082E218DF80110C1
:101F7000C44600210BE0C7F303433F01C35C491C87
:101F80006D1E02F80830052908F1010801DA002D5C
:101F9000F1DC00210CE000EB1973491C1B786D1E6D
:101FA000082902F808304FEA091908F1010801DA96
:101FB000002DF0DC21688B0602D516E0A8F101089F
:101FC000E04505DD02EB080313F8013C302BF5D0AA
:101FD000B8F1000F09DD02EB080313F8013C2E2BCA
:101FE00003D1090701D4A8F10108002D05DD3E2128
:101FF00002F808106D1E08F10108407C002E02F85E
:10200000080008F1010804DA2D20764202F80800E1
:1020100002E02B2002F808000A214FF47A70864271
:1020200008F101080BDB96FBF0F3303302F80830BF
:1020300096FBF0F308F1010800FB136601E0642E43
:102040000CDB642096FBF0F3303302F8083096FB8B
:10205000F0F308F1010800FB136601E00A2E06DB2D
:1020600096FBF1F0303002F8080008F1010896FB09
:10207000F1F001FB1060303002F80800A16908F1AE
:10208000010808EB050202EB0A00081AA06120789B
:10209000C00602D42046FEF71EFE216A08AE01EB00
:1020A0000A00206204E0D4E9012116F8010B9047F0
:1020B000BAF1010AF7D22078C00602D52046FEF711
:1020C0000AFE6E4609E016F8010B3E280FD0D4E94F
:1020D00001219047206A401C2062B8F10108F2D229
:1020E0002046FEF70EFE09B00320BDE8F08F206AFF
:1020F0002844206203E0D4E90121302090476D1E7E
:10210000EBD3F8E7ED6E000002FCFFFF2DE9F04194
:102110001F46044603260168072A01F4006004DB19
:1021200008B116A505E016A503E008B115A500E065
:1021300015A521F010002060A069C01EA0610FB19C
:10214000401EA0612046FEF7C6FD4FB1D4E9012133
:1021500038469047206A401C2062C01C206206E07E
:10216000206AFAE7D4E9012115F8010B9047761EA1
:10217000F8D22046FEF7C5FDBDE8F0814E414E0085
:102180006E616E00494E4600696E660010B5436987
:1021900013B1AFF3008001E0FEF7D6FD012010BDC2
:1021A000127800F124010A7000224A700122EDE742
:1021B00011684FF0FF32E9E710B5436913B1AFF38F
:1021C000008001E0FFF782F8012010BD128800F1C5
:1021D000240182840022C2840122EDE711684FF0BD
:1021E000FF32E9E72DE9F047814616468AB03548C7
:1021F00078440DC88DE80D0032487844801C03AC4B
:102200000DC884E80D0041F69B300844372190FB4F
:10221000F1F290FBF1F5A5F1800501FB12041B3CE6
:1022200002D56442012000E00020DFF898A080463B
:102230000027FA44AAF1BE0A0EE0E0070AD03246AF
:10224000684607EB470101230AEB810100F0F1FB2F
:102250008DE8070064107F1C002CEED1194F7F44DD
:10226000AE3F19E0E80715D007EB04100DF1180A8E
:1022700090E80E008AE80E00C068F04201D198197B
:1022800008903246012306A903A800F0D2FB03AB55
:1022900083E807006D10641C002DE3D14FF00103AB
:1022A00032466946B8F1000F03A802D000F0ACFB3B
:1022B00001E000F0BEFBC9E90001C9F808200AB03E
:1022C000BDE8F087A46C000010B50146C268900715
:1022D00003D0900607D5886A0AE0FEF7CBF8012103
:1022E0000160881E10BD8B69486818440B69C01ACC
:1022F00091F848301BB191F84910401A10BD1103F4
:10230000FCD50028FADD401E10BD000070B5054662
:1023100040F202260A4C0FE094F85000C00708D0A3
:10232000AC4206D0E06836EA000002D12046FEF753
:1023300075FA206D20F00104002CEDD170BD000075
:10234000CC07001070B516460C46054600F074F830
:10235000036893F80101012806D0FF2C0FD8185DFF
:1023600068B101202C7070BDD3F8070132462146B8
:1023700003F2071303442846BDE8704018474FF0A6
:10238000FF3070BD002801D000F050B8704710B584
:1023900000F074F8BDE81040FFF7F4BF10B500F08E
:1023A00087F8BDE81040FFF7EDBF000010B5002131
:1023B00002A000F049F8012010BD00005349475029
:1023C00056464E3A20507572652076697274756172
:1023D0006C20666E2063616C6C656400124B69460C
:1023E00000F580528A421A6001D811467047196080
:1023F000704730B50C4D6B46A3F580532C682244D2
:102400009A420FD89B1A02F5805003EBD37302EB6C
:102410006303984200D91846C01D20F007020C60E3
:10242000101B2A6030BD00004C010010014918202B
:10243000ABBEFEE72600020010B5FFF72DFC001D25
:1024400010BD00BFB951000070B505460C460A200A
:1024500000E06D1C00F054F835B128780028F8D160
:1024600002E0641C00F04CF814B120780028F8D188
:10247000BDE870400A2000F043B8000010B50146E6
:1024800002A0FFF7E1FF012010BD000053494752B1
:10249000545245443A2052656469726563743A2027
:1024A00063616E2774206F70656E3A200000000033
:1024B00010B5012805D0002103A0FFF7C5FF0120BA
:1024C00010BD09A1F8E7000053494752544D454D4E
:1024D0003A204F7574206F662068656170206D65C5
:1024E0006D6F7279000000003A2048656170206DC0
:1024F000656D6F727920636F7272757074656400B8
:1025000008B569468DF800000320ABBE08BD7047D2
:102510005FEA400C08BF91F0000F4FEA8C234FEAAE
:10252000C12243EA51514FEA1C5018BF00F5F04058
:102530004FEA300018BF41F000415FEA6C5C00F0E8
:102540002980BCF1FF3F08BF40F080407047130C6A
:1025500006BF12044FF0100C4FF0000C130E04BF16
:1025600012020CF1080C130F04BF12010CF1040C41
:10257000930F04BF92000CF1020CD30F04BF520062
:102580000CF1010C11464FF00002A0F11F00A0EB6E
:102590000C00704711F0004F08BF704731F0004148
:1025A0003FF4D5AF0B0C06BF09044FF0100C4FF0F1
:1025B000000C0B0E04BF09020CF1080C0B0F04BF3A
:1025C00009010CF1040C8B0F04BF89000CF1020C03
:1025D000CB0F04BF49000CF1010CCCF12003A0EBA0
:1025E0000C0022FA03F302FA0CF241EA030100F1B3
:1025F0000100704720F07F4C80EA030023F07F4702
:10260000ACEB070303F57C5300F0004003F1FF033C
:102610002DE980494FEA154B09B44FEA144325EAE6
:102620000B4E24EA03480FF2042606EB1327490851
:102630003E785FEA320203FB0667C7F5000707FB37
:1026400006F64FEA54374FEAD64606F1020607FB74
:10265000066CCCF1005C4FEA1C472CEA074C07FBE8
:1026600006F40CFB06F504EB15464FEA961634BF4C
:1026700000204FF000404FEAD13706FB07FC4FEA3D
:102680001C4C0CFB0BF7D21B03FB0CF761EB070197
:102690000CFB0EF7B0EB074072EB17420CFB08F790
:1026A00034BFA2EB0742B2EB074261EB17414FEA9E
:1026B0000C444FEA910706FB07FC4FEA1C4C0CFB4D
:1026C0000BF7B0EBC74072EB573203FB0CF734BF8C
:1026D000A2EBC742B2EBC74261EB57310CFB0EF7DE
:1026E000B0EBC70072EB57720CFB08F734BFA2EBDC
:1026F000C702B2EBC70261EB5771039F4FEA8161DA
:1027000041EA921104EBCC044FEAD1374FEA8262DE
:1027100006FB07FC42EA90124FEA80604FEA1C4C2D
:102720000CFB0BF7D21B03FB0CF761EB07010CFB57
:102730000EF7B0EB074072EB17420CFB08F734BF03
:10274000A2EB0742B2EB074261EB17414FEA8C550F
:102750004FEA910704EB9C2406FB07FC4FEA1C4C54
:102760000CFB0BF7B0EBC74072EB573203FB0CF7D7
:1027700034BFA2EBC742B2EBC74261EB57310CFB4F
:102780000EF7B0EBC70072EB57720CFB08F734BFC3
:10279000A2EBC702B2EBC70261EB577115EB4C25F8
:1027A0004FEA816141EA92114FEA82624FEAD137E2
:1027B00042EA901206FB07FC44F100044FEA8060F5
:1027C0004FEA1C4C0CFB0BF7D21B03FB0CF761EB25
:1027D00007010CFB0EF7B0EB074072EB17420CFB46
:1027E00008F734BFA2EB0742B2EB074261EB174197
:1027F00015EB1C154FEA813141EA92414FEA8232D2
:1028000042EA90424FEA80304FEA0C7644F10004ED
:1028100048EA03434EEA0B484FF0000EB2EB080CB7
:1028200071EB030724BF624639464EEB0E0E4FF0A4
:10283000000B0018524149414BEB0B0BB2EB080C5B
:1028400071EB03077BF1000B24BF624639464EEB68
:102850000E0E4FF0000B0018524149414BEB0B0B91
:10286000B2EB080C71EB03077BF1000B24BF62464F
:1028700039464EEB0E0E51EA020718BF46F001062C
:1028800016EB0E7655F1000254F1000103D5BDE8B8
:102890008901BDE80088BDE88901BDE80048B61996
:1028A000524141EB0101A3F10103704780807F7E1B
:1028B0007D7C7B7A797877767675747372717170B6
:1028C0006F6E6E6D6C6C6B6A6A6968686766666568
:1028D0006464636362616160605F5F5E5E5D5D5CF6
:1028E0005C5B5B5A5A595958585757565655555567
:1028F0005454535352525251515050504F4F4F4EC7
:102900004E4D4D4D4C4C4C4B4B4B4A4A4A49494914
:102910004848484747474746464645454544444456
:10292000444343434342424242414141002B9C467F
:1029300030D477002BD01CB54FEA370703B44FF0E3
:1029400010004FF01001BAF1000F06D0BCF1000FDB
:10295000DCBF40F0080040F008014FF000000FBC61
:10296000BDE810400BF1010BBBF1010F08BF5FEA9E
:10297000170722BF12F1010211F101014FF00041CE
:1029800043F1000300F0004043EA00007047F9D330
:102990005708D0E746EA064613F1400F4FEA1646BD
:1029A0001FDD13F1200FDFBF16430A46002120333D
:1029B0005B42BED0C3F1200746EA064602FA07F79B
:1029C0004FEA164646EA0706C3F1200722FA03F249
:1029D00001FA07F721FA03F14FF0000342EA070278
:1029E000A7E746EA020646EA06464FEA164646EAE0
:1029F0000106BCBF46EA0646360C4FF000034FF016
:102A000000024FF0000194E72DE9804C9A4693466E
:102A100070B491E8380007C831EA400C48BF34EA86
:102A2000430C03D5FFF7E6FDFFF780FFF0BCBDE8E0
:102A3000008C2DE9804C9A46934670B491E838009A
:102A400007C810F0804F08BF13F0804F03D100F08B
:102A500005F8FFF76BFFF0BCBDE8008C20F07F4766
:102A600080EA030023F07F4C07EB0C03A3F57C53B3
:102A700000F00040A3F1FE0392F0000F00F0B380DD
:102A800095F0000F00F077802DE901494FEA1140E1
:102A90004FEA144621EA004800FB06FC24EA0647F8
:102AA00008FB06F607FB08F800FB07F718EB0648DB
:102AB0004CEB164C4FEA124B18EB07484FEA154601
:102AC0004CEB174022EA0B4E0BFB06FC25EA0647AF
:102AD0000EFB06F607FB0EFE0BFB07F71EEB064E82
:102AE0004CEB164C4FF000061EEB074E4CEB174B11
:102AF00018EB0B0840F1000018EB0E0B58EB000828
:102B000040F100008F1A4FF000013CBFC943661B23
:102B100014BFB5EB040C00213CBFC943F61B4FEAC0
:102B200017444EEA8E0E27EA04454FEA1C4704FB81
:102B300007622CEA074C05FB07F70CFB05F604FBC4
:102B40000CFC16EB074642EB174216EB0C4642EB29
:102B50001C421BEB060658EB0202414146EA9E0668
:102B600001D5BDE80189B619524141EB0101A3F13C
:102B70000103BDE801894FEA14454FEA114724EAF1
:102B8000054621EA074C05FB07F406FB07F70CFB9B
:102B900006F105FB0CFC11EB074144EB17444FEA2F
:102BA000124711EB0C4144EB1C4422EA074C05FB95
:102BB00007F206FB07F70CFB06F605FB0CFC16EB11
:102BC000074642EB174216EB0C4642EB1C456A18CF
:102BD00054F1000148BF7047B619524141EB010161
:102BE000A3F10103704795F0000F37D04FEA11426F
:102BF0004FEA144721EA024624EA074C02FB07F198
:102C000006FB07F70CFB06F402FB0CFC14EB074475
:102C100041EB17414FEA154714EB0C4441EB1C41C3
:102C200025EA074C02FB07F506FB07F70CFB06F647
:102C300002FB0CFC16EB074645EB174516EB0C4662
:102C400045EB1C42121951F1000148BF7047B619FB
:102C5000524141EB0101A3F1010370474FEA1445D2
:102C60004FEA114724EA054621EA074C05FB07F124
:102C700006FB07F70CFB06F24FF0000605FB0CFC09
:102C800012EB074241EB174112EB0C4251EB1C4196
:102C900048BF7047921841EB0101A3F1010370474F
:102CA00010B503F0EDFBBDE8104003F0A9B9002119
:102CB000016041608160C1607047000025482021AB
:102CC000C0F8A011D0F8A01111F0200F05D000BF5E
:102CD000D0F8A01111F0400FFAD00221C0F8041171
:102CE0000022C0F8A821C0F8AC210121C0F80C11C5
:102CF0000B23C0F88430AA23C0F88C304FF0550C59
:102D0000C0F88CC0C0F88010C0F88C30C0F88CC0FF
:102D1000D0F8881011F0806FFAD00321C0F880102D
:102D2000C0F88C30C0F88CC0D0F8881011F0407F0B
:102D3000FAD00521C0F808110749C0F8C410C0F83E
:102D4000C821016843F23A0221F470411143016045
:102D50007047000000C00F40DE87280401200149B1
:102D6000087070471501001010B5612408E00B4889
:102D700000F040FC20B10948303000F069FCC4B2DA
:102D8000662CF4D103E00548303000F061FC0348C4
:102D900000F030FC0028F6D110BD0000E006001065
:102DA00010B504460021204605F0CAFC02D84FF0B9
:102DB0007E5010BD0048FCE7000080BF064801F0CF
:102DC0007BF806A1064800F09BFC06A1044800F031
:102DD00097FC00BFFEE70000C8040010730000006D
:102DE0001007001039000000D0F8EC10491CC0F8A2
:102DF000EC1070472DE9F04104460025201D00F03D
:102E000081FA064604F14C0000F07CFA074647EAD6
:102E10004600C4F8E400207848BBD4F8E00003285A
:102E200002D1D4F8E40030B1D4F8E00048B9D4F8C5
:102E3000E400032805D1D4F8E800401CC4F8E800F9
:102E400033E0D4F8E000022803D1D4F8E4000128EC
:102E500007D0D4F8E000012827D1D4F8E4000228F4
:102E600023D1D4F8E800401EC4F8E8001DE0207823
:102E700001281AD1D4E938104840032815D0D4E9E4
:102E80003810884211D094F8E00000F0010094F866
:102E9000E410C1F3400180EA01050DB94FF0FF35A0
:102EA000D4F8E800401BC4F8E800D4F8E400C4F803
:102EB000E000BDE8F0810146D1F8E800704700006D
:102EC0002DE9F05F0446884616461D46DDE90A975F
:102ED0004146201D00F080FA041F314604F14C00E9
:102EE00000F07AFAA0F14C04294604F1940000F0B5
:102EF00073FAA0F194040020C4F8E800C4F8EC00D0
:102F0000C4F8DC902770201D00F0FCF9824604F123
:102F10004C0000F0F7F983464BEA4A00E034606069
:102F2000606844F8E009144821460CC8201D04F0EC
:102F3000A8FB114821460CC8201D04F08BFB012F73
:102F40000DD10D4821460CC804F14C0004F099FB4A
:102F5000094821460CC804F14C0004F07BFB681CB6
:102F600030B1064821460CC804F1940004F089FBF6
:102F70002046BDE8F09F00005C8D0000648D0000DD
:102F800010B5044604F1940000F04EFAA0F1940448
:102F9000483800F049FAA0F14C04201D00F044FA32
:102FA000041F204610BD70B50446006801220021B0
:102FB000036920469847050048BF70BD206802227B
:102FC00000210369204698470646206800222946CA
:102FD000036920469847304670BD00207047001DA9
:102FE00003F076BD10B50C46001D03F0E5FE20464B
:102FF00010BD00EB01108169002908BF7047096806
:103000000C3008477047704770B504460068016887
:1030100020468847201D03F003FF054620684168CD
:1030200020468847284670BD2DE9F0478A4684B07F
:1030300024494FF00008E0E802181C46914640F889
:10304000048B02231022204901F009FFA0F10C0596
:103050000027046205EB071000F10C046E46CDF862
:103060000080CDF80480CDF80880CDF80C80B44203
:103070000DD0E168204600291CBF89688847039865
:1030800018B142683146204690470398E0600399A2
:10309000684600291CBF896888477F1C022FD9D346
:1030A0004A465146281D03F02FFD281DE96A03F00A
:1030B0002DFC2A460549281D03F0E6FD04B02846EC
:1030C000BDE8F087148F0000AF2C0000F32F000044
:1030D0002DE9F043044689B03C480027B9462060FA
:1030E000CDF81090CDF81490CDF81890CDF81C9034
:1030F000206804AE07F0FF0801682046884702F008
:10310000ADFB079804EB08150028A8691AD0002821
:1031100008BF03F0D5FF0C35B5420DD0E96828464D
:1031200000291CBF896888473146079810B142685A
:10313000284690470798E86001224146201D03F089
:10314000B1FD28E0002818BF03F0EAFF6E460C35F9
:10315000CDF80090CDF80490CDF80890CDF80C9003
:10316000B5420DD0E968284600291CBF8968884708
:103170003146039810B14268284690470398E860AA
:103180000399684600291CBF896888470022414688
:10319000201D03F087FD02F0A7FB20684168204650
:1031A0008847079804AA10B18168104688477F1C99
:1031B000022F95DB02231022054904F10C00FDF7D4
:1031C0001BFD09B02046BDE8F0830000148F00000D
:1031D0003D78000008B500F108010090D0F818C053
:1031E000604603F0DDFF08BD016889680847826911
:1031F00000F10801104604F043B8000010B5044681
:10320000074820600020A060E0602061606102F05B
:1032100099FC0449A06104F04FF8204610BD00005D
:103220002C8F0000E931000010B5044604482060EE
:1032300004F10801A06904F023F8204610BD000045
:103240002C8F0000002908BF7047012909D00229EE
:1032500018BF7047416C002908BF704709683830B3
:103260000847416B002908BF7047096828300847A4
:1032700070B584B00D46064602F0F0FAE86806F133
:103280003804B8B1AC420ED0E168204600291CBF1A
:10329000896888473CB1E86818B1426829462046E9
:1032A0009047E868E0600122022106F11C0002F06C
:1032B0005DFD22E000206D46009001900290039099
:1032C000AC420ED0E168204600291CBF89688847BF
:1032D0003CB12946039810B14268204690470398B4
:1032E000E0600399684600291CBF8968884700226E
:1032F000022106F11C0002F039FD04B0BDE8704067
:1033000002F0F2BA10B504464068B0F1FF3F04D1B4
:103310002C22054905A002F0D3FFA0690068A1682E
:10332000084018BF012010BDCC9100006F626A2DCB
:103330003E70696E20213D202850696E4E616D659A
:10334000294E430070B584B00D46064602F086FA59
:10335000E86806F12804B8B1AC420ED0E168204616
:1033600000291CBF896888473CB1E86818B14268E9
:10337000294620469047E868E0600122114606F1A0
:103380001C0002F0F3FC22E000206D46009001904A
:1033900002900390AC420ED0E168204600291CBF89
:1033A000896888473CB12946039810B14268204695
:1033B00090470398E0600399684600291CBF89681C
:1033C00088470022012106F11C0002F0CFFC04B066
:1033D000BDE8704002F088BA70B50446104820601D
:1033E00000206060A060E06020616061A061E06139
:1033F00020626062A062E06220636063A063E063B9
:10340000206460640D462346064A04F11C0002F065
:1034100059FC2946201D02F0E0FB204670BD00004B
:10342000408F00004532000010B504460A48206075
:1034300004F11C0002F03EFC606C383410B181686D
:103440002046884754F8040C103C10B1816820468F
:103450008847A4F1280010BD408F000030B583B02C
:1034600005463A208DF80000CDF801506846FDF77A
:1034700056FA040008D02868C1692846884718B160
:1034800020460021FDF772FA03B0204630BD00004F
:1034900070B5174C05462068002804BF201D206029
:1034A000261DB04204D05D221249134802F008FFE5
:1034B00000212468114B1022084600BF53F821C098
:1034C000AC4508BF43F82100491C521EF6D10848FC
:1034D000002C04BF011D01600068B04208BF70BD30
:1034E0005D22BDE870400349034802F0E9BE0000D8
:1034F000D40000108C90000078900000140300109D
:103500000021FDF733BA10B5044600202060C4E95D
:103510000200C4E9040002F015FBA061012020773D
:1035200002F09CF9A06903F0A0FEC4E902010020AA
:10353000C4E9040002F0D8F9204610BD10B50446D5
:1035400002F08CF9206800281EBF207F002803F0BD
:10355000E7FD0020206002F0C7F9204610BD70B5DD
:1035600004460D4602F07AF900BF207A18B903F03C
:10357000A7FD0120207200BF2946204603F01EF956
:1035800002F0B2F970BD70B504460D4602F066F95E
:103590002946204603F0F6F802F0A6F970BD70B592
:1035A00004460D460020207202F058F929462046B4
:1035B00003F068F802F098F9204670BD10B5044693
:1035C00002F04CF900BF207A012803D103F0A8FDD6
:1035D0000020207200BF02F087F9204610BD70B5B0
:1035E00004460D4629462046FFF7B9FF204670BD28
:1035F0007047704710B504462046FFF705FD08B137
:10360000012010BD0020FCE710B5FFF70DFD0021E3
:10361000303000F08FF8044940F8301D7C314163B0
:103620005C39016310BD0000508F000010B50749E0
:1036300040F8341B7C3140F804195C39016000F01B
:10364000B1F8BDE810403038FFF742BD508F0000A0
:1036500070B504460068C16C204688476069FDF774
:10366000F8F8606900F016FB05462068016D2046F9
:103670008847284670BD70472DE9F041054600682F
:103680000F460C468E18C16C28468847B4420AD0B3
:103690002868826C28469047B0F1FF3F03D004F8B9
:1036A000010BB442F4D12868016D28468847E01B1D
:1036B000BDE8F0810020704700207047002070476F
:1036C0002DE9F041054600680F460C468E18C16C86
:1036D00028468847B4420AD0286814F8011B426C77
:1036E00028469047B0F1FF3F18BFB442F4D1286894
:1036F000016D28468847E01BBDE8F0810020704737
:103700000FB470B504460068C16C2046884706AD0A
:103710006069FDF79EF82A4660690599FCF7A8FFE5
:1037200005462068016D20468847284670BC5DF834
:1037300014FB704710B5104A40F8042B002200F02B
:10374000CBF9041F0D4820605C3060600020606190
:103750000BA1204600F05AF901000846616102D031
:10376000FFF7CEFE05E0FCF785FE016805A002F03C
:10377000A5F9204610BD0000C88E0000DC8F0000B7
:10378000772B000053747265616D206F626A20664A
:1037900061696C7572652C206572726E6F3D25646F
:1037A0000D0A000010B50446054820605C306060DA
:1037B0006069FDF7E5F8201D00F0AEF9001F10BDAF
:1037C000DC8F000070B515461E46044602F046F830
:1037D0002046FFF70CFDC4E90856A06903F045FD3B
:1037E000D4E9082382184B412046FFF7F3FCBDE8DB
:1037F000704002F079B800002DE9FF4705460E46FB
:1038000014460C49204604F0CFFE824605F002F92A
:10381000074688463146684603F0BAFF81463A4675
:1038200043464946284600F04EF8684604F006F83C
:10383000BDE8FF870024744930B585B0044602F026
:103840000DF82046FFF7D3FC606B00281EBF94F8EC
:103850003800002803F064FC6D46002028340090F6
:10386000019002900390AC420ED0E16820460029FE
:103870001CBF896888473CB12946039810B142684B
:10388000204690470398E0600399684600291CBFD2
:103890008968884702F028F805B030BD10B50446A5
:1038A000D4E90801D4E9022312184B412046FFF75E
:1038B00091FC616B002908BF10BD04F12800096864
:1038C000BDE8104008472DE9F047054689461746F0
:1038D000984601F0C3FF00BF686B08B1012000E00B
:1038E000002020B995F8380008B103F0E9FB05F194
:1038F0002804CA4654450BD0204603F09FFF00BF62
:1039000000BF261E04D05146304603F041FF064654
:1039100000BF3A4643462846FFF754FF01F0E4FF54
:10392000BDE8F08770B504462046FFF767FC044603
:10393000204600BF04461148206004F12800002200
:103940002AB90021016041608160C1600EE001463A
:1039500000250D604D608D60CD60084600BF031EE0
:1039600000D01A60064DCD6000BF00BF00BFA0F1BF
:103970002804012084F83800204670BD48900000DB
:103980000091000070B5054684B01F48286001F022
:1039900065FF2846FFF72BFC686B00281EBF95F8D3
:1039A0003800002803F0BCFB05F1280400206E4617
:1039B0000090019002900390B4420ED0E16820463E
:1039C00000291CBF896888473CB13146039810B173
:1039D0004268204690470398E060039968460029B2
:1039E0001CBF8968884701F07FFF686B05F12804D8
:1039F00010B181682046884704B0A4F12800BDE8D2
:103A00007040FFF711BC000048900000FFF726BD92
:103A100010B500F12804406B28B94FF40472054931
:103A2000054802F04DFCE06801682046BDE8104002
:103A300008470000119100000C91000010B50446E9
:103A4000084820602046FFF7F7FE616B04F128006C
:103A500000291CBF896888472046BDE81040FFF751
:103A6000E3BB000048900000007B704770B506463D
:103A70000D46154803F0D8FD14480468F4B1A06859
:103A8000C8B12A463146FCF7C0FFA0B9A068FCF7D0
:103A90009DFFA8420FD10C480168002904BF011DF9
:103AA0000160001D814204D05D220949094802F0ED
:103AB00007FC204670BD6468002CE0D1024803F08A
:103AC000B3FD002070BD000038010010340100106B
:103AD0008C9000007890000070B504460B480026DA
:103AE000A160C4E900060D462273094803F09CFD5D
:103AF000002D08BF666003D006480168616004605D
:103B0000034803F091FD204670BD00007090000056
:103B1000380100103401001010B504461048206030
:103B2000104803F081FDA06878B10F490868A042F1
:103B300004BF6068086008D04168A14203D008460D
:103B40004968A142FBD161684160064803F06CFD01
:103B5000207B002804BF201FFFF79AFC204610BDE1
:103B600070900000380100103401001010B50446B8
:103B7000406818B1FFF778FF012801D0002010BD80
:103B80006068002818BF001F10BD10B504464068CB
:103B900010B1FFF769FF08B1002010BD6068002870
:103BA00018BF001F10BD4068002818BF01207047D3
:103BB00010B54068002808BF10BDFFF755FF00286A
:103BC0000CBF0120002010BD0068704710B50446EE
:103BD00000202060606008782F280DD1487858B107
:103BE0004B1C00212360226810782F2806D038B1A2
:103BF000501C491C2060F6E7204610BD501C206078
:103C00001846FFF733FF6060204610BD10B504462C
:103C100000BF00BF00BF00BF00BF2068401C20B92C
:103C20002C2207A115A002F04BFB00BF60690068C1
:103C30006168084008B1012010BD0020FCE70000C9
:103C40006D6265642F5441524745545F4C50433177
:103C50003736382F5441524745545F4E58502F54F1
:103C600041524745545F4C5043313736582F6770A7
:103C7000696F5F6F626A6563742E68006F626A2D98
:103C80003E70696E20213D202850696E4E616D6541
:103C9000294E430001F03CBF2DE9FE4F05460E467C
:103CA00017461C46DDE90EABDDE90C8943463A4672
:103CB000314628468DE8000E00F008F91420064928
:103CC00041F288330122CDE900102146284600F058
:103CD00089FCBDE8FE8F00006F12833A2DE9F04F9A
:103CE00089B004460D4616464FF00009CA46D4F87E
:103CF0001402816C8B466749584604F055FC804697
:103D0000D4F81402016B05914146059804F07AFA43
:103D10000746614904F0EAFA0790D4F81402816C6E
:103D20008B465C49584604F03FFC8046D4F81402A8
:103D3000C16A05914146059804F0F6FD07465649CB
:103D400004F0D4FA06902868079904F0EDFD814646
:103D50003068069904F0E8FD8246484604F026FAE9
:103D600007464E4A4E4B04F003F8CDE902014D4898
:103D7000006804F01BFACDE90001DDE9022303F03D
:103D8000AFFDCDE9040103F079FD464908605046D6
:103D900004F00CFA0746414A414B03F0E9FFCDE934
:103DA00002014148006804F001FACDE90001DDE9B3
:103DB000022303F095FDCDE9040103F05FFD3A49CC
:103DC000086038480168394804F0EEFB83463849FA
:103DD00004F08CFA804600F0E1FF07464FF07E5178
:103DE00004F0AEFC0DD22F480068FEF7D9FF8046E4
:103DF0002E4904F07BFA07462D4904F0D5FB2949EA
:103E0000086029480168294804F0CEFB8346284908
:103E100004F06CFA804600F0C1FF07464FF07E5177
:103E200004F08EFC0DD220480068FEF7B9FF8046F2
:103E30001E4904F05BFA07461D4904F0B5FB1A4918
:103E4000086018480168194804F0AEFB80464946EE
:103E5000184804F0A9FB8346414604F0D3F907460D
:103E6000134904F043FA28600F4801680F4804F032
:103E70009BFB804651460F4804F096FB8346414623
:103E800004F0C0F907460A4904F030FA306009B07E
:103E9000BDE8F08FCDCCBC40666656407B14AE4783
:103EA000E17A843F180100101C0100100000184145
:103EB00000004041CDCCCC3F10B5044604F11C00BD
:103EC00000F0A4FD201D00F0A1FD10BD0FB5A5B0B0
:103ED00000201F901E901D901C901B901A9019900E
:103EE00018901790169015901490139012901190AE
:103EF00010900F900E900D900C90FE4908702B982A
:103F000004F0F2FAFC490B9020A803F025FC0A907B
:103F10000146FA480B9AFFF76FFC20A803F08EFCCD
:103F200000BF259800F051FB0990269904F06AFC27
:103F30000B90259800F04FFB0990279904F062FC44
:103F40000A900B9900F035FF1790259800F0D0FCEF
:103F50001890259800F0CCFC0790179904F052FCBB
:103F6000089000F01BFF099004F020F9E44AE54BAB
:103F7000CDE90A0103F0FAFF22D2259800F0B8FC3F
:103F80000190179904F03EFC0290FEF709FF0390A0
:103F900004F00CF9DA4ADC4BCDE9040103F0E8FE49
:103FA000CDE90801189804F001F9CDE90601DDE931
:103FB000082303F095FCCDE90A0103F05FFC18909B
:103FC000DDE9170104F0B0FC089000F0E7FE09906D
:103FD00004F0ECF8CD4ACE4BCDE90A0103F0C6FF60
:103FE0000AD81420CB4940F26243CDE90010289A48
:103FF0001799259800F0F6FADDE9170104F094FC12
:104000001B90169888B11F991B9804F08DFC07909F
:1040100004F0CCF8C04AC14BCDE9080103F014FD0F
:10402000CDE90A0103F02AFC1A90012016901B9892
:104030001F90BB481A9904F0B7FA0B90B9481B9926
:1040400004F0B2FA0A900B9904F0DCF81990B64823
:10405000199904F0A9FAB5490B9004F047F91C909E
:10406000259800F0B2FA0B90269904F0CBFB15903E
:104070000F99159804F058FC079004F097F8A64A99
:10408000A64BCDE9080103F0DFFCCDE90A0103F0FE
:10409000F5FB139015980F90A548139904F084FA36
:1040A0000B90A448159904F07FFA0A900B9904F03C
:1040B000A9F81290259800F08EFA0B90279904F039
:1040C000A1FB14900E99149804F02EFC079004F0B4
:1040D0006DF8914A914BCDE9080103F0B5FCCDE9AB
:1040E0000A0103F0CBFB119014980E90904811999F
:1040F00004F05AFA0B908F48149904F055FA0A907C
:104100000B9904F07FF810901099084604F04CFACF
:104110000A901299084604F047FA09900A9904F0A7
:1041200071F80B9000F03FFE0D901C9804F03EF8E3
:1041300002460B46CDE90A017FA0FCF79FFA8149B0
:104140000D9804F0D3F80B901C9904F05BF81E90C6
:104150007C490D9804F0CAF80B901C9904F0E4FB1C
:104160001D9040F2F3512C9888425ED11E9800F0C9
:1041700015FE75490B9004F0E3FA26D200211B9836
:1041800004F0DEFA21D81E98FEF70AFE6E490B9065
:1041900004F00AFA1E904FF080401C9904F004FAD3
:1041A0000B901E9904F02EFB1D901D9800F0F6FD5B
:1041B00065490B9004F0C4FA07D21D98FEF7F0FD94
:1041C00061490B9004F0F0F91D901D9800F0E6FD98
:1041D0005D490B9004F0B4FA4CD200211B9804F016
:1041E000AFF947D21D98FEF7DBFD57490B9004F05D
:1041F000DBF91D904FF080401C9904F0D5F90B902D
:104200001D9903F0FFFF1E901E9800F0C7FD4E4958
:104210000B9004F095FA2DD21E98FEF7C1FD4A4985
:104220000B9004F0C1F91E9024E040F2A7512C98A5
:1042300088421FD11D9800F0B1FD43490B9004F056
:104240007FFA07D21D98FEF7ABFD3F490B9004F0B3
:10425000ABF91D901E9800F0A1FD3B490B9004F0B6
:104260006FFA07D21E98FEF79BFD37490B9004F0BA
:104270009BF91E90259800F03BFB0790179904F0DE
:10428000C1FA089000F08AFD099003F08FFF1C4AE4
:104290001C4BCDE90A0103F069FE09D21E9880F09B
:1042A00000400C901D9880F000401E900C981D90CE
:1042B000289800287ED0259800F01AFB07902598B2
:1042C00000F083F90390269904F09CFA0590259854
:1042D00000F081F90390279904F094FA049005996D
:1042E00000F067FD0690079904F01EFB089000F0AF
:1042F00055FD2BE0150100105D2D00008804001015
:10430000EA2E4454FB21F93FFB2109409C742D38CF
:1043100052C1F03F6F12833A7B14AE47E17A843F7B
:10432000DBF99E3F9A99D9419A9999416666D640A0
:10433000AE47E13DCDCC4C4077433A2025660D0A8F
:1043400000000000666656400000A041099003F09E
:104350002DFF774A774BCDE90A0103F007FE03D220
:1043600075A17648FFF7CCF9259800F0C1FA0790BF
:10437000259800F02AF90390269904F043FA059055
:10438000259800F028F90390279904F03BFA04904F
:10439000059900F00EFD0690079904F0C5FA089003
:1043A00000F0FCFC099003F001FF614A614BCDE98C
:1043B0000A0100E087E003F09FFC03D260A15F48A0
:1043C000FFF79EF95D483038FFF714F920B15B48DC
:1043D000FFF73EF95B490870259800F089FA0790CD
:1043E000259800F0F2F80390269904F00BFA059056
:1043F000259800F0F0F80390279904F003FA049050
:10440000059900F0D6FC0690079904F08DFA089003
:1044100000F0C4FC099003F0C9FE454A454BCDE9C4
:104420000A0103F0A3FD13D246480078342807D0D0
:1044300044480078352803D042480078362807D110
:104440003DA13E48FFF75CF900201E901D903AE028
:10445000259800F04DFA0790259800F0B6F80390E3
:10446000269904F0CFF90590259800F0B4F8039050
:10447000279904F0C7F90490059900F09AFC06907A
:10448000079904F051FA089000F088FC099003F0B5
:104490008DFE274A274BCDE90A0103F02DFC12D2ED
:1044A00028480078312807D026480078322803D0E1
:1044B00024480078332806D121A12048FFF720F9AD
:1044C00000201E901D901DAA1EA92598FFF706FC2E
:1044D00025981C301E9900F0A5FA2598001D1D99FD
:1044E00000F0A0FA1499084604F05EF808901599B7
:1044F000084604F059F80790089903F083FE0990E4
:1045000000F051FC0A9000F049FC0B902A9904F04D
:1045100017F904D20C48007800283FF402AD259822
:10452000FFF7CAFC0948FFF787F929B000BD000072
:10453000EA2E4454FB21F93F3300000068040010C8
:104540003000000014010010150100108804001054
:104550002DE9FF5F06460F4614461D46DDF83880FC
:10456000304600F0C5F90190019802F0E5FC834661
:10457000394604F019F88246304600F02CF85146CE
:10458000029003F03FFE8146304600F0B1F9019001
:10459000019801F0D5F98346394604F005F88246C2
:1045A000304600F012F85146029003F02BFE0390C3
:1045B00040F2F35023464A46CDE900580290304677
:1045C0000399FFF783FCBDE8FF9F0146D1F8140271
:1045D000026A104670470146D1F81402426A10463A
:1045E000704700002DE9F04F93B00446884691468D
:1045F0001D4600200E900D900C90002600270B9079
:104600000A908246A54908701D9803F06DFF834605
:10461000A3490FA803F0A0F85A4601460990A14803
:10462000FFF7EAF80FA803F009F900BF41F288305C
:10463000854204D1204600F05BF982463EE040F21C
:10464000624085423AD1204600F052F98246204627
:1046500000F04EF94146069004F0D4F8079000F0BF
:104660009DFB834603F0A2FD8F4A904BCDE90801E4
:1046700003F07CFC22D2204600F03AF9414600903B
:1046800004F0C0F88346FEF78BFB019003F08EFD2B
:10469000854A874BCDE9020103F06AFBCDE90601AB
:1046A000504603F083FDCDE90401DDE9062303F064
:1046B00017F9CDE9080103F0E1F88246514640467A
:1046C00004F032F9074638460E9904F02DF9834676
:1046D00003F06CFD774A784BCDE9060103F0B4F99D
:1046E000CDE9080103F0CAF80B900E9773480B99B7
:1046F00003F05AFF83463946714803F055FF594687
:10470000099003F07FFD0A906E480A9903F04CFF70
:1047100083466D4903F0EAFD0646384603F046FD40
:1047200002460B46CDE9080168A0FBF7A7FF30461B
:1047300000F034FB8346694904F002F807D23046A2
:10474000FEF72EFB8346654903F02EFF06460D96C5
:1047500086F000400C900CAA0DA92046FFF7BEFA87
:10476000B9F1000F7AD0204600F0C2F84146089017
:1047700004F048F8099000F011FB8346002103F093
:10478000DFFE03D256A15748FEF7BAFF204600F0DD
:10479000AFF84146089004F035F8099000F0FEFAB1
:1047A0008346002103F0CCFF03D24FA14D48FEF712
:1047B000A7FF4C483038FEF71DFF20B14948FEF7EF
:1047C00047FF4A490870204600F092F84146089099
:1047D00004F018F8099000F0E1FA8346002103F094
:1047E000AFFE16D241480078342807D03F48007801
:1047F000352803D03D48007836280AD138A13948F9
:10480000FEF77EFF2046FFF757FB00200D900C902F
:1048100024E0204600F06CF84146089003F0F2FFD7
:10482000099000F0BBFA8346002103F089FF15D2FE
:104830002E480078312807D02C480078322803D041
:104840002A480078332809D127A12648FEF758FFC7
:104850002046FFF731FB00200D900C9004F11C0066
:104860000D9900F0DFF8201D0C9900F0DBF83846B8
:1048700000F094FA83461C9903F062FF04D20748C3
:10488000007800283FF4D2AE2046FFF715FB05481C
:10489000FEF7D2FF13B0BDE8F08F00001501001045
:1048A0005D2D000088040010EA2E4454FB21F93FDE
:1048B000FB2109407B14AE47E17A843FDBF99E3F40
:1048C0009A99D9419A9999416666D6406554686526
:1048D00074613A2025660D0A000000000000A04126
:1048E00033000000680400103000000014010010C4
:1048F0000146D1F81402826A104670472DE9FE4F36
:1049000004460E4617461D46DDE90EABDDE90C896F
:10491000224820605946201D109A00F0AAF8041F72
:104920005246494604F11C0000F0A3F8A0F11C0413
:1049300000204FF40061431E3A46CDE90010314695
:1049400004F13400FEF7BCFAA0F1340400204FF467
:104950000061431E4246CDE90010294604F59270DD
:10496000FEF7AEFAA0F59274C82000F035FA029076
:1049700068B10B480B490B4604F13402CDE9001035
:1049800004F59271029800F063F9029000E00020B3
:10499000C4F814022046BDE8FE8F0000B88E000067
:1049A0009A99F9416666264070B50446164820601B
:1049B000D4F8140278B1D4F8145205F18800FEF747
:1049C000E1FFA0F188053038FEF7B8FDA0F15806E8
:1049D000304600F0FEF904F59270FEF7D1FAA0F52A
:1049E000927404F13400FEF7CBFAA0F1340404F120
:1049F0001C0000F062F8A0F11C04201D00F05DF81E
:104A0000041F204670BD0000B88E000010B504469B
:104A100000212046FEF7E3FD002104F10C00FEF723
:104A2000DEFD10BD70B505460C460021204603F0A2
:104A300087FE09D821462846FEF791FD002105F1A1
:104A40000C00FEF78CFD13E00021204603F078FDFA
:104A50000ED200212846FEF782FD00BF00BF24F0E1
:104A6000004000BF0646314605F10C00FEF777FD19
:104A700070BD70B504460E46154631462046FEF719
:104A80008EFD0446294604F10C00FEF788FDA0F1D6
:104A90000C0414212046FEF776FD142104F10C00CD
:104AA000FEF771FD00212046FEF799FD002104F17B
:104AB0000C00FEF794FD204670BD10B5044604F1CD
:104AC0000C00FEF77BFDA0F10C042046FEF776FDFE
:104AD000044610BD01624262836270470164426411
:104AE000836470472DE9F84F044656486065206896
:104AF000FEF7E1F96168401A60612068FEF7DBF9B2
:104B00006060A068FEF7D7F9E168401A2061A068EC
:104B1000FEF7D1F9E060606903F0E6FC8246A16F20
:104B200003F042FD8046616D03F0E0FBE062206926
:104B300003F0DAFC8246E16F03F036FD8046616DDA
:104B400003F0D4FB2063206903F0CEFC0090E16FFA
:104B500003F02AFD8246606903F0C6FC0090A16F55
:104B600003F022FD8346514603F04CFB80464FF094
:104B7000804103F0BBFB8146606903F0B5FC009007
:104B8000A16F03F011FD8246206903F0ADFC009097
:104B9000E16F03F009FD8346514603F0C5FE8046F0
:104BA000D4F8801003F0A2FB0546D4F828804046D4
:104BB00000F0C6FE8246494603F0F6FC0646D4F8ED
:104BC0002880404602F0B8F98246494603F0ECFCE2
:104BD0000746206A314603F015FB2062606A3946B9
:104BE00003F010FB6062A06A294603F00BFBA06291
:104BF00094F83C0060B9616D304603F077FB606368
:104C0000616D384603F072FBA063012084F83C001C
:104C1000616D304603F06AFB8046616B03F084FEF1
:104C20002064616D384603F061FB8046A16B03F0A0
:104C30007BFE6064616D284603F058FBA064BDE80C
:104C4000F88F00000AD7233CC1640265704700005A
:104C50002DE9F04F8FB004460D461646994604F1F3
:104C60005800FEF750FCA0F1580404F18800FEF74C
:104C700059FEA0F188042560A660C4F81890189821
:104C8000E06100202061606100BFD5F8DC00834650
:104C900003F02AFC82465146484603F027FB804633
:104CA0004FF0804103F080FC0746374903F07CFC5D
:104CB000A06700BFD6F8DC00834603F015FC8246EF
:104CC0005146189803F012FB80464FF0804103F0E4
:104CD0006BFC07462C4903F067FCE0671998C4F8A1
:104CE00080002846FEF7E7F860603046FEF7E3F8FC
:104CF000E06000231A4619462046FFF7EBFE00232A
:104D00001A4619462046FFF7E9FE002211462046C2
:104D1000FFF79AFF1D486065002084F83C0060633F
:104D2000A063E062206304F18807A246184903C922
:104D3000DFF86080CDE90C01514608A8DDE90C23BD
:104D400002F090FD0DF1200B1349404603F02CFCBE
:104D5000009003F05FFECDE90201594604A802F07D
:104D600017FD019001463846DDE90223FEF7ABFD51
:104D700004A802F063FD00BF08A802F05FFD00BFB9
:104D800020460FB0BDE8F08F560E4940CDCCCC3D4B
:104D9000548D00000AD7233C00247449014600BF0B
:104DA00021F00040704710B50446204602F0E2F9B9
:104DB00010BD70B504460D462946204600F006FC9D
:104DC00070BD70473038FEF70AB93038FEF70AB9BF
:104DD0007047FBF782BB000010B5FBF74FFB0400E8
:104DE00004BF02A000F06AFE204610BD4F7065723D
:104DF00061746F72206E6577206F7574206F662006
:104E00006D656D6F72790D0A00000000490050EA6F
:104E1000C12018BF04204A0D18BF40F0010040F225
:104E2000FF72B2EB515F08BF40F00200012808BFDB
:104E3000052070474100080218BF04200A0E18BF61
:104E400040F001004FF07F4232EA010108BF40F01C
:104E50000200012808BF05207047012070472DE996
:104E6000F0411C4617460E00804607D0054602E07A
:104E70002846B0473D442046641EF9D24046BDE86E
:104E8000F0810020FCF700BF012103F027BE03F0F2
:104E9000B9B90021084603F029BA6FF05E0108078E
:104EA00003F01CBE2DE9F04D0D4614464FF07F4136
:104EB000B1EB440F9EBF4FF0FF312960BDE8F08D8C
:104EC0004FF0004040EA0421C4F3C750783810F096
:104ED0001F024A4B4FEA601CC2F120067B44C4F318
:104EE000C750A0F178004FEA601003EB800053F840
:104EF0002C3008BFD0E901C612D0D0F804C09340CE
:104F00002CFA06F73B4387680CFA02FC27FA06F8EE
:104F1000C06807FA02F2F0404CEA080C42EA0006C8
:104F2000A3FB0132ACFB01C0A6FB016101EB0C0647
:104F30008E4234BF4FF0010C4FF0000CC118614499
:104F4000BCF1000F02D0814202D903E0814201D2BC
:104F5000012000E00020104400F120024FEA9218E6
:104F60008006CA0C40EA42304F03C5F8008003F0C7
:104F7000BBFA8246384603F0CFFA6FF0120103F015
:104F8000ADFD0746304603F0C7FA6FF0250103F088
:104F9000A5FD83463946504603F034F9594603F0DF
:104FA00031F900F500666FF30B065146304603F009
:104FB000BBFC394603F0B8FC594603F023FC10490A
:104FC00003F0F2FA07460F49304603F0EDFA39468E
:104FD00003F018F907460C49304603F0E5FA394664
:104FE00003F010F914F0004F08BFBDE8F08DC8F1D0
:104FF000805180F000402960BDE8F08DF43E000053
:10500000DB0FC92F22AAFD290000C92F70B586B079
:105010002948411EC21C431CCDE90132CDE90310D1
:1050200025483138431C421E811E00902348FFF75B
:1050300065FC0446224A2349FFF70FFF4FF4E13392
:105040001D4A413A511E2048FEF7DEFA04461C4A2A
:105050001E49FFF702FF1E4C174D3A3D182120460E
:10506000FBF750FD2946204600F0B7FD00BF194D63
:105070002C462046FEF7C2F80446204600BF0446F0
:1050800015482060002104F1280002F065FBA0F122
:105090002804012084F8380000BF2546284600BFB8
:1050A00005460E482E46064A0D4928603046FFF751
:1050B000D4FE06B070BD000042C00920C804001034
:1050C00000000000A9490000E00600102D36000095
:1050D0002C07001048070010489000005C9000006A
:1050E0003D3A000070B54FF4E133164A511E1648A0
:1050F000FEF78AFA0446154A1549FFF7AEFE154D2C
:105100002C462046FEF77AF80446204600BF0446A7
:1051100011482060002104F1280002F01DFBA0F1DD
:105120002804012084F8380000BF2546284600BF27
:1051300005460A482E46054A094928603046FFF7C9
:105140008CFE70BD0BC00920380400100000000068
:105150002D36000088040010489000005C9000008C
:105160003D3A000010B500F009F810BD30380A28AB
:1051700001D20120704700207047000002486A46B3
:1051800020F0070070470000E708001010B5054C3C
:1051900021686006C422FBF783FC6006206001F0F2
:1051A00070F910BD08ED00E00328BCBF0020704777
:1051B00010B500220E4901EB800151F80C0C41F8AA
:1051C0000C2C68B101684969884704005CBF002065
:1051D00010BDFBF74FF9614201604FF0FF3010BD89
:1051E000FBF748F9092101604FF0FF3010BD0000C6
:1051F0001403001010B5032805DAFBF73BF905216D
:105200000160881F10BD0D4901EB800050F80C0CA7
:1052100060B10168896A8847040058BF10BDFBF778
:1052200029F9614201604FF0FF3010BDFBF722F910
:10523000092101604FF0FF3010BD00001403001081
:105240000328BCBF0120704710B50C4901EB80005A
:1052500050F80C0C58B10168C9698847040058BF60
:1052600010BDFBF707F961420160002010BDFBF79C
:1052700001F909210160002010BD00001403001095
:105280002DE9F0470E4684B081467549FBF762FC74
:10529000754D744C6F1E20B374494846FBF75AFC99
:1052A00000282ED072494846FBF754FC002838D01D
:1052B000704C2068002804BF201D2060251DA842D6
:1052C00004D05D226C496D4800F0FAFF21686C4FF4
:1052D000002400BF57F8240098B3641C102CF9D3A5
:1052E00032E0206848B92A463946664801F00CFC8D
:1052F0004FF41651634801F009FB04B00020BDE8EB
:10530000F087206848B92A4639465E4801F0FCFB20
:105310004FF416515B4801F0F9FA04B00120BDE8E2
:10532000F087206848B92A463946564801F0ECFB18
:105330004FF41651534801F0E9FA04B00220BDE8D9
:10534000F087FFE7102C15D3FBF794F818210160C4
:1053500048480168002904BF011D0160A94204D02A
:105360005D224549454800F0ABFF04B04FF0FF30E7
:10537000BDE8F0874FF0FF383E4847F82480002909
:1053800004BF011D01600068A84204D05D223A49B3
:105390003A4800F095FF4FF0000ACDF808A099F8C0
:1053A00000003A2808BFD9F8010010D049466846E5
:1053B000FEF70CFC6846FEF7F6FB1325D8B36846EB
:1053C000FEF7F6FB0028684608D0FEF7DEFB0290E9
:1053D00047F8240004B0E01CBDE8F087FEF7C6FBE8
:1053E00048B316F0020F18BF02252ED016F00C0F8E
:1053F00018BF45F4007516F0040F18BF45F480651A
:1054000006466846FEF7E0FB024630682B4602A9D6
:10541000D0F808C03046E047002808BF0298D7D02F
:105420000546FBF727F86942016047F824A004B05D
:105430004046BDE8F087FFE7FBF71CF8056047F83A
:1054400024A004B04046BDE8F08716F0040F18BF52
:105450000125CBD116F0080F14BF09250025C5E79B
:10546000588B0000FC00001003C009205F8B000077
:10547000678B0000D40000108C9000007890000032
:10548000140300100401001070B515460C460328E3
:1054900012DA1648006848B9154A1648511E01F03C
:1054A00033FB4FF41651134801F030FA114801F064
:1054B0000FFB207001240FE00F4901EB800050F832
:1054C0000C0C58B101688B6821469847040003D53D
:1054D000FAF7D0FF61420160281B70BDFAF7CAFFDE
:1054E000092101604FF0FF3070BD0000FC0000108A
:1054F00003C00920040100101403001010B500229D
:10550000032806DAFAF7B6FF1D2101604FF0FF30DD
:1055100010BD0D4B03EB800050F80C0C60B103681C
:105520001B699847040058BF10BDFAF7A3FF6142FA
:1055300001604FF0FF3010BDFAF79CFF09210160B8
:105540004FF0FF3010BD00001403001070B5154679
:105550000E46032818DA1948006848B9184A19484D
:10556000511E01F0D1FA4FF41651164801F0CEF950
:105570000024002D06D9315D124801F01DFC641C89
:10558000A542F8D82C460FE00F4901EB800050F8F7
:105590000C0C58B10168CB6831469847040003D51C
:1055A000FAF768FF61420160281B70BDFAF762FFDD
:1055B000092101604FF0FF3070BD0000FC000010B9
:1055C00003C0092004010010140300102DE9F04766
:1055D0004FF0684202EB40030C460546B3F1654FBD
:1055E0003CBF02EB4102B2F1654F7CD2C0F3C7531E
:1055F000C1F3C7529A1A1B2A06DD10F0004F14BFE0
:1056000076487748BDE8F08712F11A0F17DA11F0E3
:10561000004F06D010F0004F0CBF72487248BDE832
:10562000F0872146284602F061FE0446FFF702FC9F
:10563000042808BFFFF731FC2046BDE8F087420090
:10564000B2EB410F25D910F0004F19BF674F684EDC
:10565000684F694E224685F0004415460A4680F0A0
:10566000004110460A1A5200B2F1807F40D24840F1
:105670006249DFF88CA110F0004F18D04FF03F487E
:10568000384603F051F907465146304603F04CF9CD
:1056900017E011F0004F04BF00263746E2D010F0AB
:1056A000004F19BF574F584E584F594EDAE74FF039
:1056B0007C58384602F0A6FD07465146304602F0B7
:1056C000A1FD06464146284602F06EFF214602F043
:1056D00099FD82462146404602F066FF294603F0C6
:1056E00091F8514600E037E002F000FE044604E085
:1056F0002146284602F0FAFD0446014602F054FF16
:105700008046444902F050FF434902F07BFD414688
:1057100002F04AFF414902F075FD414602F044FFA4
:105720003F4902F06FFD414602F03EFF3D4902F065
:1057300069FD05464146204602F036FF294602F043
:1057400033FF314602F05EFD214602F05BFD394633
:10575000BDE8F04702F056BD4FF07F42B2EB400F7C
:1057600028BFB2EB410F03D2BDE8F047FFF78FBB74
:1057700040EA01035B0008BF44F0FF410AD0B2EBEE
:10578000400F08BFB2EB410F06D125F0804024F056
:10579000804105460C4629E7B2EB400F12BF5FEA95
:1057A000410245F0FF4004F000413FF41FAF4A00C2
:1057B00092EA40033FF51AAF002AACBF4FF09F4674
:1057C0004FF03E56314602F0EFFE05463146204688
:1057D00002F0EAFE04462846214607E7DB0FC9BF70
:1057E000DB0FC93FDB0F4940DB0F49C00000C9BFD9
:1057F00022AAFDB90000C93F22AAFD390060ED3E92
:10580000C30ACE37000049C022AA7DBA0000494031
:1058100022AA7D3A2DAD65BD8FB8D53D0FB511BE1D
:1058200061C84C3EA8AAAABE70B50D46044600F059
:1058300015F82088401B85B2258000F055F82846D1
:1058400070BD70B50D46044600F008F82088284465
:1058500085B2258000F048F8284670BD70B5EFF39A
:105860001080012121EA000080F0010572B60D4C84
:105870006068002808BF25706068B0F1FF3F04D160
:105880004322094909A000F01BFD606828B125B931
:10589000472205490FA000F013FD6068401C6060BE
:1058A00070BD000028010010C4930000696E74658B
:1058B00072727570745F656E61626C655F636F753F
:1058C0006E746572203C2055494E5433325F4D4111
:1058D00058000000696E74657272757074735F644D
:1058E000697361626C65640010B50E4C60680028D5
:1058F00008BF10BDEFF31080012121EA000090F0F5
:10590000010F04D15822084908A000F0D9FC6068B2
:10591000401E60606068002806BF2078002810BD27
:1059200062B610BD28010010C4930000696E746552
:105930007272757074735F64697361626C65640020
:105940002DE9F843044602464F486946B0EB420F42
:1059500009D94FF0E640B0EB420F94BF00204FF062
:10596000FF30009030E0494B22F00040834271D973
:105970004749204602F018FE02F014FF804602F06C
:1059800077FD00F0030000904249404602F00CFE13
:1059900005464149404602F007FE06463F4940465B
:1059A00002F002FE07463E49404602F0FDFD214658
:1059B00002F028FF394602F0B7FF314602F0B4FF8B
:1059C000294602F0B1FF04462546009C002C45DB29
:1059D000294614F0010F08461CD002F0E5FD0646EA
:1059E000304902F0E1FD304902F00CFF314602F08F
:1059F000DBFD2E4902F006FC314602F0D5FD2946BA
:105A000002F0D2FD294602F0FDFB14F0020F1CD07B
:105A1000BDE8F88302F0C8FD0546254902F0C4FD43
:105A2000244902F0EFFB294602F0BEFD224902F0B4
:105A3000E9FB294602F0B8FD4FF07E5102F0E2FB8F
:105A400014F0020F08BFBDE8F88380F00040BDE805
:105A5000F883FFE71046FFF725FAB4E76800B0F1D6
:105A60007F4F3CBF4FF07E50BDE8F88307D14FF029
:105A70000100FBF72AF9BDE8F843FFF70ABA284608
:105A8000BDE8F843FFF700BAB61F927E490E4946BB
:105A900083F9223F1A61342C0020A23300A0FD3983
:105AA0000000C93F336D4C39DA82083CA0AA2ABEF7
:105AB000B93AB2BACA9F2A3DDDFFFFBE0FB408480B
:105AC00010B5017800291CBF10BC5DF814FB012142
:105AD000017003A9029800F0A7FC012000F002F871
:105AE0003001001004460848FAF7B3FE0748FAF7F9
:105AF000B0FE00F0C3FC002818BF00F001FF002C2E
:105B000018BF00F007FCFEE7200800107408001022
:105B10000168002901DCFBF72ABD491E01604168CC
:105B20004A1C4260087870478A68002A01DCFBF74B
:105B30000CBE521E8A604A68C0B2531C4B60107083
:105B40007047000000487047888D000070B504461B
:105B500000680D46B0F1FF3F04D12C2209490AA08C
:105B600000F0AEFB45B1012D18BF70BDA068016803
:105B700062681143016070BDA0680168626891436A
:105B8000F8E70000689100006F626A2D3E70696E50
:105B900020213D202850696E4E616D65294E4300DD
:105BA00070B50C4605460160B1F1FF3F08BF70BDFE
:105BB0000021204600F066FC04F01F00012101FADC
:105BC00000F0686024F01F0000F11801E960091D71
:105BD000296108396961A86070BD70B50326054662
:105BE0000C46FFF7DDFFB4F1FF3F08BF70BD002199
:105BF0002846FFF7ABFF31462846BDE8704000F06D
:105C000019B9000070B50D4604460226FFF7C8FF1B
:105C1000B5F1FF3F08BF70BD2068B0F1FF3F04D170
:105C200024220849084800F04BFB2169606808609D
:105C300001212046FFF78AFF31462046BDE870402B
:105C400000F0F8B8CC9100009C5C00002DE9F04118
:105C500004460E4602271546FFF7A2FFB6F1FF3FA6
:105C600008BFBDE8F0812068B0F1FF3F04D12422D5
:105C700009490AA000F024FB6068002D14BFE16808
:105C80002169086001212046FFF760FF3946204660
:105C9000BDE8F04100F0CEB8CC9100006F626A2DF3
:105CA0003E70696E20213D202850696E4E616D6501
:105CB000294E43008068024A002142F820107047B4
